{
  "contractName": "LoanSystem",
  "abi": [
    {
      "inputs": [],
      "payable": false,
      "stateMutability": "nonpayable",
      "type": "constructor"
    },
    {
      "constant": true,
      "inputs": [
        {
          "internalType": "address",
          "name": "",
          "type": "address"
        },
        {
          "internalType": "uint256",
          "name": "",
          "type": "uint256"
        }
      ],
      "name": "loanMap",
      "outputs": [
        {
          "internalType": "bytes32",
          "name": "",
          "type": "bytes32"
        }
      ],
      "payable": false,
      "stateMutability": "view",
      "type": "function"
    },
    {
      "constant": true,
      "inputs": [],
      "name": "owner",
      "outputs": [
        {
          "internalType": "address",
          "name": "",
          "type": "address"
        }
      ],
      "payable": false,
      "stateMutability": "view",
      "type": "function"
    },
    {
      "constant": true,
      "inputs": [
        {
          "internalType": "bytes32",
          "name": "",
          "type": "bytes32"
        },
        {
          "internalType": "uint256",
          "name": "",
          "type": "uint256"
        }
      ],
      "name": "ownerMap",
      "outputs": [
        {
          "internalType": "address",
          "name": "",
          "type": "address"
        }
      ],
      "payable": false,
      "stateMutability": "view",
      "type": "function"
    },
    {
      "constant": false,
      "inputs": [
        {
          "internalType": "bytes32",
          "name": "document",
          "type": "bytes32"
        }
      ],
      "name": "addData",
      "outputs": [],
      "payable": false,
      "stateMutability": "nonpayable",
      "type": "function"
    },
    {
      "constant": true,
      "inputs": [
        {
          "internalType": "address",
          "name": "person",
          "type": "address"
        }
      ],
      "name": "getLoanCount",
      "outputs": [
        {
          "internalType": "uint256",
          "name": "",
          "type": "uint256"
        }
      ],
      "payable": false,
      "stateMutability": "view",
      "type": "function"
    },
    {
      "constant": true,
      "inputs": [
        {
          "internalType": "bytes32",
          "name": "hash",
          "type": "bytes32"
        }
      ],
      "name": "getOwnerCount",
      "outputs": [
        {
          "internalType": "uint256",
          "name": "",
          "type": "uint256"
        }
      ],
      "payable": false,
      "stateMutability": "view",
      "type": "function"
    },
    {
      "constant": true,
      "inputs": [
        {
          "internalType": "bytes32",
          "name": "hash",
          "type": "bytes32"
        },
        {
          "internalType": "uint256",
          "name": "index",
          "type": "uint256"
        }
      ],
      "name": "getOwnerByPosition",
      "outputs": [
        {
          "internalType": "address",
          "name": "",
          "type": "address"
        }
      ],
      "payable": false,
      "stateMutability": "view",
      "type": "function"
    }
  ],
  "bytecode": "0x608060405234801561001057600080fd5b50336000806101000a81548173ffffffffffffffffffffffffffffffffffffffff021916908373ffffffffffffffffffffffffffffffffffffffff1602179055506106cd806100606000396000f3fe608060405234801561001057600080fd5b506004361061007d5760003560e01c80638da5cb5b1161005b5780638da5cb5b1461018a5780638fde4dcf146101d4578063f258d1831461024c578063f53c61e01461028e5761007d565b80631594a3131461008257806328af94c8146100e457806337f51b4214610112575b600080fd5b6100ce6004803603604081101561009857600080fd5b81019080803573ffffffffffffffffffffffffffffffffffffffff169060200190929190803590602001909291905050506102e6565b6040518082815260200191505060405180910390f35b610110600480360360208110156100fa57600080fd5b8101908080359060200190929190505050610314565b005b6101486004803603604081101561012857600080fd5b810190808035906020019092919080359060200190929190505050610569565b604051808273ffffffffffffffffffffffffffffffffffffffff1673ffffffffffffffffffffffffffffffffffffffff16815260200191505060405180910390f35b6101926105bc565b604051808273ffffffffffffffffffffffffffffffffffffffff1673ffffffffffffffffffffffffffffffffffffffff16815260200191505060405180910390f35b61020a600480360360408110156101ea57600080fd5b8101908080359060200190929190803590602001909291905050506105e1565b604051808273ffffffffffffffffffffffffffffffffffffffff1673ffffffffffffffffffffffffffffffffffffffff16815260200191505060405180910390f35b6102786004803603602081101561026257600080fd5b810190808035906020019092919050505061062c565b6040518082815260200191505060405180910390f35b6102d0600480360360208110156102a457600080fd5b81019080803573ffffffffffffffffffffffffffffffffffffffff16906020019092919050505061064c565b6040518082815260200191505060405180910390f35b600260205281600052604060002081815481106102ff57fe5b90600052602060002001600091509150505481565b600060016000838152602001908152602001600020905060008090505b81805490508110156103bb573373ffffffffffffffffffffffffffffffffffffffff1682828154811061036057fe5b9060005260206000200160009054906101000a900473ffffffffffffffffffffffffffffffffffffffff1673ffffffffffffffffffffffffffffffffffffffff1614156103ae575050610566565b8080600101915050610331565b50600160008381526020019081526020016000203390806001815401808255809150509060018203906000526020600020016000909192909190916101000a81548173ffffffffffffffffffffffffffffffffffffffff021916908373ffffffffffffffffffffffffffffffffffffffff160217905550506000600260003373ffffffffffffffffffffffffffffffffffffffff1673ffffffffffffffffffffffffffffffffffffffff16815260200190815260200160002080549050905060008090505b818110156104f95783600260003373ffffffffffffffffffffffffffffffffffffffff1673ffffffffffffffffffffffffffffffffffffffff16815260200190815260200160002082815481106104d357fe5b906000526020600020015414156104ec57505050610566565b8080600101915050610480565b50600260003373ffffffffffffffffffffffffffffffffffffffff1673ffffffffffffffffffffffffffffffffffffffff16815260200190815260200160002083908060018154018082558091505090600182039060005260206000200160009091929091909150555050505b50565b600060016000848152602001908152602001600020828154811061058957fe5b9060005260206000200160009054906101000a900473ffffffffffffffffffffffffffffffffffffffff16905092915050565b6000809054906101000a900473ffffffffffffffffffffffffffffffffffffffff1681565b600160205281600052604060002081815481106105fa57fe5b906000526020600020016000915091509054906101000a900473ffffffffffffffffffffffffffffffffffffffff1681565b600060016000838152602001908152602001600020805490509050919050565b6000600260008373ffffffffffffffffffffffffffffffffffffffff1673ffffffffffffffffffffffffffffffffffffffff16815260200190815260200160002080549050905091905056fea265627a7a7231582084ee1bb5df7f100f1aabc82a2f943d6d8558c40c3af66e9b1eb7fe59bc57d6d664736f6c63430005100032",
  "source": "pragma solidity ^0.5.4;\r\n\r\ncontract LoanSystem {\r\n    address public owner;\r\n\r\n  mapping (bytes32=>address[]) public ownerMap;\r\n  mapping (address=>bytes32[]) public loanMap;\r\n\r\n  constructor() public {\r\n      owner = msg.sender;\r\n  }\r\n  \r\n  function addData(bytes32 document) public {\r\n    address[] storage owners = ownerMap[document];\r\n    for( uint i = 0; i < owners.length; i++){\r\n      if(owners[i] == msg.sender)\r\n        return;\r\n    }\r\n    ownerMap[document].push(msg.sender);\r\n    uint count = loanMap[msg.sender].length;\r\n    for( uint i = 0; i < count; i++){\r\n      if (loanMap[msg.sender][i] == document)\r\n        return;\r\n    }\r\n    loanMap[msg.sender].push(document);\r\n  }\r\n\r\n  function getLoanCount(address person) public view returns(uint) {\r\n    return loanMap[person].length;\r\n  }\r\n\r\n  function getOwnerCount(bytes32 hash) public view returns(uint) {\r\n    return ownerMap[hash].length;\r\n  }\r\n  \r\n  function getOwnerByPosition(bytes32 hash, uint index) public view returns(address) {\r\n    return ownerMap[hash][index];\r\n  }\r\n  \r\n}",
  "sourcePath": "C:/Users/Sam/Documents/Projects/Loan/contracts/LoanSystem.sol",
  "compiler": {
    "name": "solc",
    "version": "0.5.16+commit.9c3226ce.Emscripten.clang"
  },
  "schemaVersion": "3.3.3",
  "updatedAt": "2021-03-15T23:37:05.601Z",
  "networkType": "ethereum",
  "devdoc": {
    "methods": {}
  },
  "userdoc": {
    "methods": {}
  }
}